:020000040800F2
:100000001813002021020008AD710008995B000858
:10001000496B0008E9330008358300080000000040
:10002000000000000000000000000000357D000816
:100030000D37000800000000BD790008097F0008A6
:100040003B0200083B0200083B0200083B0200089C
:100050003B0200083B0200083B0200083B0200088C
:100060003B0200083B0200083B0200083B0200087C
:100070003B0200083B0200083B0200083B0200086C
:100080003B0200083B0200083B0200083B0200085C
:100090003B0200083B0200083B0200083B0200084C
:1000A0003B0200083B0200083B0200083B0200083C
:1000B0003B0200083B0200083B0200083B0200082C
:1000C0003B0200083B0200083B0200083B0200081C
:1000D0003B0200083B020008B58200083B02000812
:1000E0003B0200083B0200083B02000800F002F857
:1000F00000F06CF80AA090E8000C82448344AAF156
:100100000107DA4501D100F061F8AFF2090EBAE853
:100110000F0013F0010F18BFFB1A43F0010318473B
:1001200010D3000030D300000A444FF0000C10F848
:10013000013B13F0070408BF10F8014B1D1108BF65
:1001400010F8015B641E05D010F8016B641E01F805
:10015000016BF9D113F0080F1EBF10F8014BAD1C55
:100160000C1B09D16D1E58BF01F801CBFAD505E073
:1001700014F8016B01F8016B6D1EF9D59142D6D3CD
:10018000704700000023002400250026103A28BFF5
:1001900078C1FBD8520728BF30C148BF0B607047F9
:1001A000662909F0EA87642900F0968000207047EC
:1001B0001FB500F0A6F900F07DFE0400002000212C
:1001C00008F00CFEE0601FBD10B510BD00F076FF1A
:1001D0001146FFF7EDFF08F0C3FC00F094FF03B4F5
:1001E000FFF7F2FF03BC00F0D9FF00000B49D1F884
:1001F00000C04A685CF8043B1068184442F8040BDD
:100200008C4528BFA1F1DC0C8A4228BFA1F1DC0299
:10021000C1F800C04A6020F000407047840C002004
:100220000948804709480047FEE7FEE7FEE7FEE78A
:10023000FEE7FEE7FEE7FEE7FEE7FEE704480549C6
:10024000054A064B70470000937F0008ED00000848
:10025000180D002018130020180F0020180F002080
:100260000FB41CB5074B06AA7B446946009005985D
:1002700000F079FD0020694600F088FD1CBC5DF8A7
:1002800014FB0000210B000070B50446856900686E
:10029000C10601D5302600E02026C00707D070BD7A
:1002A000D4E9012130469047206A401C20626D1E2F
:1002B000F6D570BD70B5044685690078C00707D1D2
:1002C00070BDD4E9012120209047206A401C2062A3
:1002D0006D1EF6D570BD00002DE9F04106460024E4
:1002E00010687529314616A510D0AFF3008000289C
:1002F00002DA404213A507E031688A0701D512A54A
:1003000002E0490704D511A5012401E0AFF3008004
:1003100000210A2206F1240709E0B0FBF2FCB0FB41
:10032000F2F302FB1C00303078541846491C0028B8
:10033000F3D123462A463046BDE8F04100F0A6BA84
:10034000000000002D0000002B0000002000000035
:100350002DE9F05F894604464FF0000ADFF874B1DA
:10036000FB44C0F820A02046E1688847002874D0EC
:10037000252806D0D4E901219047206A401C20623C
:10038000F1E700265F462046E168884720280546B9
:1003900007DB312D05D2781910F8200C08B106437F
:1003A000F1E7B00701D526F00406C4F81CA0002729
:1003B000C4F818A02A2D09D0284608F0F9F938B356
:1003C00004EB8708303DC8F8185019E059F8041BB1
:1003D000204604EB87029161E1688847012F0546BA
:1003E00018D1E069002820DA26F020061DE0D8F8B0
:1003F000180000EB800005EB40003038C8F818000A
:100400002046E1688847054608F0D2F90028EED179
:10041000012F0AD02E2D08D12046E16888477F1C85
:100420000546022F46F02006C4DBA069002803DA47
:10043000404246F00106A061F00701D026F0100608
:100440006C2D0BD0682D09D04C2D39D06A2D35D0AC
:10045000742D35D07A2D33D016E038E0E1682F4680
:1004600020468847B842054609D16C2F26D04FF464
:100470008060E168064320468847054604E06C2F0B
:100480001AD04FF4807006430DB3A5F1410019282E
:1004900002D8203546F400664A46294620462660A2
:1004A0004E46FFF77DFE80B101280BD0F61D26F0E9
:1004B000070000F1080956E74020E4E78020D8E76C
:1004C0000020D6E706F104094DE7284652E7206AE6
:1004D000BDE8F09FA8CD00000B4910B5A1F17C024A
:1004E0000A4CC2E93712372106E000EB104342F80C
:1004F0002130074B00FB03400B1EA1F10101F4DC8E
:1005000010BD0120E8E70000240C0020E119D666A8
:10051000CD0D010040EA0103024630B59B0710D122
:100520004FF0013400E008C208C91D1B9D4315EAC5
:10053000C41FF8D013F0FF0102F8011B0DD01B0AF5
:10054000F8E711F8013B002B02F8013B05D011F848
:10055000013B002B02F8013BF3D130BD10B5431C29
:1005600002E010F8011B71B18107FAD14FF001329E
:1005700002C88C1A8C4314EAC211F9D0C01A0A06B8
:1005800003D0C01E10BDC01A10BD0A0401D0801EC9
:1005900010BD0902FCD0401E10BD032A40F230807D
:1005A00010F0030C00F0158011F8013BBCF1020FB4
:1005B000624498BF11F801CB00F8013B38BF11F835
:1005C000013BA2F1040298BF00F801CB38BF00F84C
:1005D000013B11F0030300F0DE83083AC0F008800D
:1005E00051F8043B083A51F804CBA0E80810F5E7AD
:1005F000121D5CBF51F8043B40F8043BAFF3008090
:10060000D20724BF11F8013B11F801CB48BF11F804
:10061000012B24BF00F8013B00F801CB48BF00F8D4
:10062000012B70474FF000020429C0F0128010F037
:10063000030C00F01B80CCF1040CBCF1020F18BFBE
:1006400000F8012BA8BF20F8022BA1EB0C0100F051
:100650000DB85FEAC17C24BF00F8012B00F8012B24
:1006600048BF00F8012B70474FF0000200B5134659
:1006700094469646203922BFA0E80C50A0E80C50C2
:10068000B1F12001BFF4F7AF090728BFA0E80C5073
:1006900048BF0CC05DF804EB890028BF40F8042B6C
:1006A00008BF704748BF20F8022B11F0804F18BFD9
:1006B00000F8012B70470000014900F09FBB0000CB
:1006C0008C0C002010B503681C1404EB21449BB271
:1006D00089B2194494FBF2F302FB134394FBF2F446
:1006E00001EB034393FBF2F102FB113193FBF2F3B5
:1006F00001E05B1E11440029FBDB016003EB0440B9
:1007000010BDF0B504464FF0FF3585B00068049089
:1007100060680290A0680390E068019020690090F2
:10072000666906F18040B0F1004F7CD83C22002180
:1007300004A8FFF7C7FF3C22014602A8FFF7C2FF4B
:100740001822014603A8FFF7BDFF411E40F2B55233
:1007500001A8FFF7B7FF0C22074668460021FFF704
:10076000B1FF414B00EB8700304400267B4411E091
:10077000511A01910099491C0229009102D00C29BB
:1007800008D105E0810705D00199491C019101E0DC
:10079000401C00960099019A595C9142E8DD00994D
:1007A000012906D11C2A04D1810702D00221CDE9FA
:1007B0000016A0F146018B293CD2DDE90061002240
:1007C00002E09F5C521C3944B242FADB012E02DD8A
:1007D000820700D0491E40F2B55340F26D16C21791
:1007E00000EB927292105A4300F0030303FB0622BF
:1007F00083070A4400D1521E039E02EB4203049F6A
:1008000006EBC303029EC3EB031306EB8303174EF1
:1008100033441E149BB2C6EB0616C3EB0313B6009B
:1008200007EB830300E005E006EB134666F31F4386
:10083000360C02D0284605B0F0BD80C4029E40C4EC
:10084000039E40C4019E761C44F80C6B009E44E954
:1008500002600720521C92FBF0F600FB162084E891
:1008600023001846E7E7000048CA0000A039CEFD83
:1008700070477047704710B500F020FB006810BD4E
:1008800010B5044600F01AFB046010BD2DE9F047D6
:100890000D4699469246044600F1240801688806F0
:1008A00004D5E06921F01001216000E00120A84298
:1008B00001DD471B00E00027A1697A1902EB09005E
:1008C000081AA0612078C00602D42046FFF7DCFC9D
:1008D000002608E0D4E901211AF806009047206AB2
:1008E000401C761C20624E45F4DB2078C0060AD5F9
:1008F0002046FFF7C9FC06E0D4E9012130209047EB
:10090000206A401C2062381EA7F10107F4DC07E0D2
:10091000D4E9012118F805009047206A401C2062A4
:10092000281EA5F10105F3DC2046FFF7C3FC207863
:10093000000602D50220BDE8F0870120FBE77047E2
:100940002DE9FF4F0C461E464FF0FF378BB0D2E922
:100950000001DDF860800A908A46C1F30A5505B9A6
:100960003D46002108464FF00000BAF1000F00F4A8
:10097000400005DA00EB80004FF4400101EA50002E
:100980004FEA9059B9F1010F00DDB9460A9850EAD3
:100990004A000ED044F61050A5F2FF3545432F14FF
:1009A000B8F1000F1ED07542291E1EDDC9F10002EC
:1009B0001CE0B8F1010F4FF0000001D0302103E03E
:1009C000F24305E02154401CB042FBDB30460022DC
:1009D000002121540B99C1F80880C1E900200FB013
:1009E000BDE8F08FBD1B6D1CDEE74A4600DA6942A8
:1009F00006A800F0EDFA06AB93E8070003AB83E826
:100A0000070050460A9900F0CFFB8DE80700A0F5DB
:100A100000501F3800900398002D0ADD42F21F019C
:100A20004A460844002303A90390684600F038FEB4
:100A300009E0A0F500504A461F38002303A903909F
:100A4000684600F042FE8DE807000004000C03D069
:100A50004FF0FF30410800E01046B8F1000F03D01E
:100A60000022009215461EE0751E05D400F02AFAF9
:100A7000303262556D1EF9D5B3460122084302D0CB
:100A800000227F1C04E02078302801D100227F1E44
:100A9000002A099784D01DE0112D07DA00F012FA20
:100AA000303262556D1C50EA0102F5D1084302D084
:100AB0000098C8B10EE00021681E05E0235C625C6E
:100AC00063542254401E491C8142F7DBAB46A81BED
:100AD000401E0990002004F80B000B98099AC0F8FA
:100AE0000880C0E9002B7AE711264FF0000857E78D
:100AF0002DE9F04F88460446D21D22F0070191B03F
:100B0000D1E90001CDE90A0107F0F8FC02460B9893
:100B1000C00F01D02D2007E02068810701D52B20D0
:100B200002E0202101EAC000032A099001D0072A2F
:100B300005DB03464146204600F00AFA0BE1207827
:100B4000800601D5E06900E00620B8F1650F814616
:100B500006D0B8F1660F18D0B8F1670F70D131E048
:100B60000020B9F1110F009001DB112301E009F120
:100B700001030AAA01A90CA8FFF7E2FEDDE90C7047
:100B8000002609F10105834647E001204B4600900D
:100B90004FF000470AAA01A90CA8FFF7D1FEDDE932
:100BA0000DB00C995D46002610B909F101000D1831
:100BB000B9EB050003D4C0F1FF3609F10105A5EB3F
:100BC00009002BE0B9F1010F01DA4FF00109002013
:100BD000B9F1110F0090484601DD112300E00346F2
:100BE0000AAA01A90CA8FFF7ABFEDDE90C704D467F
:100BF00000268346207800070AD4AB4500DA5D461C
:100C000001A8012D04DD411911F8011C302907D07C
:100C10004F4502DA17F1040F04DA012082460FE093
:100C20006D1EEEE7002F02DCED1B3E4403E0781C56
:100C3000A84200DD7D1CB81B00F1010A4FF00047FF
:100C40002078000703D4AA4501DB4FF0FF3A0021CA
:100C5000B7F1004F0DF143088DF8431024D0022066
:100C60002B23002F01DA7F422D230A21021EA0F13F
:100C7000010000DC5FB197FBF1FC97FBF1F201FB97
:100C80001C7C17460CF1300C08F801CDEEE7A8F1FA
:100C9000010003702188090501D5452100E0652187
:100CA000A0F1010800F8011C09980FA9A1EB0807A1
:100CB000FF1D00B10120411901EBEA70A169384420
:100CC000081A401EA0612078C00602D42046FFF713
:100CD000DBFA099828B1D4E901219047206A401C29
:100CE00020622078C00622D52046FFF7CDFA1EE00C
:100CF000002E04DBB34502DD01A8805D00E030205A
:100D0000D4E901219047206A401C2062761CAAF198
:100D100001005FEA000A0AD100F0CCF8C06801685F
:100D2000405CD4E901219047206A401C2062281EC3
:100D3000A5F10105DCDC07E0D4E9012118F8010B7D
:100D40009047206A401C2062381EA7F10107F3DC9F
:100D50002046FFF7AFFA032011B041E601694A1CB3
:100D600002610878704700B58FB0CDE901310021EC
:100D7000059105497944CDE9031011466846FFF70E
:100D8000E7FA0FB000BD0000E5FFFFFF0A6802F8B8
:100D9000010B0A60704710B5203AC0F00B80B1E833
:100DA0001850203AA0E81850B1E81850A0E81850A0
:100DB000BFF4F5AF5FEA027C24BFB1E81850A0E8A9
:100DC000185044BF18C918C0BDE810405FEA827CC3
:100DD00024BF51F8043B40F8043B08BF7047D207DA
:100DE00028BF31F8023B48BF11F8012B28BF20F87B
:100DF000023B48BF00F8012B7047000070B50C465D
:100E0000016800204A1C3ED03C22B1FBF2F302FBF9
:100E10001313B1FBF2F12360B1FBF2F302FB1313E6
:100E2000B1FBF2F118226360B1FBF2F302FB131382
:100E3000B1FBF2F146F2E0320A440721A360B2FBB3
:100E4000F1F301FB132140F2B553B2FBF3F5A161BD
:100E5000B2FBF3F103FB15228900B2F5B77F08D38B
:100E60009B10521EB2FBF3F52944B2FBF3F503FBD2
:100E700015220F4BE261616189077B440CD03B2A4C
:100E80000AD3521C08E02C212046FFF7EDFB01207D
:100E9000E0600AE0521A401C195C9142FAD9521CD7
:100EA000C4E903204FF0FF302062204670BD0000EF
:100EB0003AC3000000487047D80C00200048704733
:100EC000B80C002030B5B0F10A024FEA900E71F173
:100ED00000034EEA817EB0EB0E0061EB91014FEA18
:100EE000101E4EEA017E10EB0E0041EB11114FEA8D
:100EF000102E4EEA016E10EB0E0041EB11214FEA6D
:100F0000104E4EEA014E10EB0E0041EB114140181D
:100F100041F100014FEAD00040EA41704FEAD101AF
:100F200010EB80054FEA810444EA907444EB01041D
:100F30006D1944EB0404521BA3414FF0000348BF5A
:100F40000A3200D530BD401C41F1000130BD000027
:100F50002DE9F0411F46044603260168072A01F4E3
:100F6000006004DB08B116A505E016A503E008B192
:100F700015A500E015A521F010002060A069C01E95
:100F8000A0610FB1401EA0612046FFF77DF94FB16F
:100F9000D4E9012138469047206A401C2062C01CD9
:100FA000206206E0206AFAE7D4E9012115F8010B76
:100FB0009047761EF8D22046FFF77CF9BDE8F08115
:100FC0004E414E006E616E00494E4600696E6600ED
:100FD0002DE9F047814616468AB0354878440DC859
:100FE0008DE80D0032487844801C03AC0DC884E8BD
:100FF0000D0041F69B300844372190FBF1F290FB45
:10100000F1F5A5F1800501FB12041B3C02D56442F9
:10101000012000E00020DFF898A080460027FA4475
:10102000AAF1BE0A0EE0E0070AD03246684607EB96
:10103000470101230AEB810100F047FB8DE807001F
:1010400064107F1C002CEED1194F7F44AE3F19E095
:10105000E80715D007EB04100DF1180A90E80E0010
:101060008AE80E00C068F04201D198190890324613
:10107000012306A903A800F028FB03AB83E80700BF
:101080006D10641C002DE3D14FF001033246694618
:10109000B8F1000F03A802D000F002FB01E000F05D
:1010A00014FBC9E90001C9F808200AB0BDE8F087BF
:1010B0008CC2000000487047B80C00207546FFF74E
:1010C000F9FFAE4605006946534620F00700854605
:1010D00018B020B5FFF7B2F8BDE820404FF0000689
:1010E0004FF000074FF000084FF0000B21F0070110
:1010F000AC46ACE8C009ACE8C009ACE8C009ACE853
:10110000C0098D46704710B50446AFF300802046F5
:10111000BDE81040FFF763B84FF0013C50F8042BD6
:1011200051F8043B9A4221D1A2EB0C03934313EAFA
:10113000CC1317D150F8042B51F8043B9A4215D127
:10114000A2EB0C03934313EACC130BD150F8042BFE
:1011500051F8043B9A4209D1A2EB0C03934313EAE2
:10116000CC13DBD04FF00000704700BFD01A01BA9B
:10117000B1FA81F101F0180122FA01F0CB40C1F17E
:101180002001DBB2C0B2C01A2CFA01F3D11A91438C
:1011900011EAC311E6D170477047000001491820D9
:1011A000ABBEFEE7260002005FEA400C08BF91F0EC
:1011B000000F4FEA8C234FEAC12243EA51514FEA14
:1011C0001C5018BF00F5F0404FEA300018BF41F046
:1011D00000415FEA6C5C00F02980BCF1FF3F08BF72
:1011E00040F080407047130C06BF12044FF0100C03
:1011F0004FF0000C130E04BF12020CF1080C130F79
:1012000004BF12010CF1040C930F04BF92000CF107
:10121000020CD30F04BF52000CF1010C11464FF029
:101220000002A0F11F00A0EB0C00704711F0004F6E
:1012300008BF704731F000413FF4D5AF0B0C06BF3B
:1012400009044FF0100C4FF0000C0B0E04BF090204
:101250000CF1080C0B0F04BF09010CF1040C8B0FEF
:1012600004BF89000CF1020CCB0F04BF49000CF144
:10127000010CCCF12003A0EB0C0022FA03F302FADC
:101280000CF241EA030100F10100704720F07F4CAD
:1012900080EA030023F07F47ACEB070303F57C53A0
:1012A00000F0004003F1FF032DE980494FEA154BA0
:1012B00009B44FEA144325EA0B4E24EA03480FF21F
:1012C000042606EB132749083E785FEA320203FB47
:1012D0000667C7F5000707FB06F64FEA54374FEAE3
:1012E000D64606F1020607FB066CCCF1005C4FEA1D
:1012F0001C472CEA074C07FB06F40CFB06F504EB35
:1013000015464FEA961634BF00204FF000404FEAD2
:10131000D13706FB07FC4FEA1C4C0CFB0BF7D21B2A
:1013200003FB0CF761EB07010CFB0EF7B0EB07407A
:1013300072EB17420CFB08F734BFA2EB0742B2EB8B
:10134000074261EB17414FEA0C444FEA910706FB55
:1013500007FC4FEA1C4C0CFB0BF7B0EBC74072EBE1
:10136000573203FB0CF734BFA2EBC742B2EBC742C4
:1013700061EB57310CFB0EF7B0EBC70072EB577205
:101380000CFB08F734BFA2EBC702B2EBC70261EB5C
:101390005771039F4FEA816141EA921104EBCC043B
:1013A0004FEAD1374FEA826206FB07FC42EA90120D
:1013B0004FEA80604FEA1C4C0CFB0BF7D21B03FB7F
:1013C0000CF761EB07010CFB0EF7B0EB074072EB7B
:1013D00017420CFB08F734BFA2EB0742B2EB0742FF
:1013E00061EB17414FEA8C554FEA910704EB9C24BF
:1013F00006FB07FC4FEA1C4C0CFB0BF7B0EBC7409D
:1014000072EB573203FB0CF734BFA2EBC742B2EBCF
:10141000C74261EB57310CFB0EF7B0EBC70072EB24
:1014200057720CFB08F734BFA2EBC702B2EBC7023E
:1014300061EB577115EB4C254FEA816141EA92113E
:101440004FEA82624FEAD13742EA901206FB07FC6C
:1014500044F100044FEA80604FEA1C4C0CFB0BF790
:10146000D21B03FB0CF761EB07010CFB0EF7B0EB93
:10147000074072EB17420CFB08F734BFA2EB0742A0
:10148000B2EB074261EB174115EB1C154FEA8131B6
:1014900041EA92414FEA823242EA90424FEA80307A
:1014A0004FEA0C7644F1000448EA03434EEA0B4845
:1014B0004FF0000EB2EB080C71EB030724BF62463D
:1014C00039464EEB0E0E4FF0000B001852414941C9
:1014D0004BEB0B0BB2EB080C71EB03077BF1000B32
:1014E00024BF624639464EEB0E0E4FF0000B00183B
:1014F000524149414BEB0B0BB2EB080C71EB03076C
:101500007BF1000B24BF624639464EEB0E0E51EACA
:10151000020718BF46F0010616EB0E7655F10002E1
:1015200054F1000103D5BDE88901BDE80088BDE89C
:101530008901BDE80048B619524141EB0101A3F110
:101540000103704780807F7E7D7C7B7A7978777617
:1015500076757473727171706F6E6E6D6C6C6B6A90
:101560006A6968686766666564646363626161602E
:10157000605F5F5E5E5D5D5C5C5B5B5A5A595958AB
:101580005857575656555555545453535252525115
:10159000515050504F4F4F4E4E4D4D4D4C4C4C4B6B
:1015A0004B4B4A4A4A4949494848484747474746B2
:1015B00046464545454444444443434343424242EE
:1015C00042414141002B9C4630D477002BD01CB5C2
:1015D0004FEA370703B44FF010004FF01001BAF193
:1015E000000F06D0BCF1000FDCBF40F0080040F057
:1015F00008014FF000000FBCBDE810400BF1010BDB
:10160000BBF1010F08BF5FEA170722BF12F1010209
:1016100011F101014FF0004143F1000300F00040DF
:1016200043EA00007047F9D35708D0E746EA064678
:1016300013F1400F4FEA16461FDD13F1200FDFBFF5
:1016400016430A46002120335B42BED0C3F1200777
:1016500046EA064602FA07F74FEA164646EA070642
:10166000C3F1200722FA03F201FA07F721FA03F186
:101670004FF0000342EA0702A7E746EA020646EAFD
:1016800006464FEA164646EA0106BCBF46EA06464B
:10169000360C4FF000034FF000024FF0000194E7CA
:1016A0002DE9804C9A46934670B491E8380007C8FB
:1016B00031EA400C48BF34EA430C03D5FFF7E6FD9E
:1016C000FFF780FFF0BCBDE8008C2DE9804C9A4606
:1016D000934670B491E8380007C810F0804F08BFF7
:1016E00013F0804F03D100F005F8FFF76BFFF0BC5B
:1016F000BDE8008C20F07F4780EA030023F07F4C98
:1017000007EB0C03A3F57C5300F00040A3F1FE03AC
:1017100092F0000F00F0B38095F0000F00F077809A
:101720002DE901494FEA11404FEA144621EA0048E9
:1017300000FB06FC24EA064708FB06F607FB08F850
:1017400000FB07F718EB06484CEB164C4FEA124B20
:1017500018EB07484FEA15464CEB174022EA0B4EB0
:101760000BFB06FC25EA06470EFB06F607FB0EFE02
:101770000BFB07F71EEB064E4CEB164C4FF000062A
:101780001EEB074E4CEB174B18EB0B0840F100001B
:1017900018EB0E0B58EB000840F100008F1A4FF0C9
:1017A00000013CBFC943661B14BFB5EB040C00210C
:1017B0003CBFC943F61B4FEA17444EEA8E0E27EA98
:1017C00004454FEA1C4704FB07622CEA074C05FB63
:1017D00007F70CFB05F604FB0CFC16EB074642EB87
:1017E000174216EB0C4642EB1C421BEB060658EB6D
:1017F0000202414146EA9E0601D5BDE80189B619BB
:10180000524141EB0101A3F10103BDE801894FEA17
:1018100014454FEA114724EA054621EA074C05FB27
:1018200007F406FB07F70CFB06F105FB0CFC11EBBC
:10183000074144EB17444FEA124711EB0C4144EBCC
:101840001C4422EA074C05FB07F206FB07F70CFBDA
:1018500006F605FB0CFC16EB074642EB174216EBAF
:101860000C4642EB1C456A1854F1000148BF704712
:10187000B619524141EB0101A3F10103704795F004
:10188000000F37D04FEA11424FEA144721EA0246CF
:1018900024EA074C02FB07F106FB07F70CFB06F4F2
:1018A00002FB0CFC14EB074441EB17414FEA1547D0
:1018B00014EB0C4441EB1C4125EA074C02FB07F5F5
:1018C00006FB07F70CFB06F602FB0CFC16EB0746C3
:1018D00045EB174516EB0C4645EB1C42121951F12E
:1018E000000148BF7047B619524141EB0101A3F115
:1018F000010370474FEA14454FEA114724EA0546B1
:1019000021EA074C05FB07F106FB07F70CFB06F283
:101910004FF0000605FB0CFC12EB074241EB1741B0
:1019200012EB0C4251EB1C4148BF7047921841EB3F
:101930000101A3F10103704770B504460068816896
:10194000C943C90717D1816821F00101816002F004
:101950009DFC05460AE000BF02F098FC401B0228EF
:1019600004D920688068C043C00706D0206880681A
:10197000C043C007F0D0002070BDA06A40F0100046
:10198000A062E06A40F00100E062012070BD00004A
:10199000F8B500260446009600688168C943C90767
:1019A0002DD0816841F00101816016481649006818
:1019B000B0FBF1F000E0401E00900028FBD102F0E7
:1019C00065FC054616E000BF02F060FC401B0228E3
:1019D00010D920688068C043C0070BD0A06A40F0CF
:1019E0001000A062E06A40F00100E06284F8246028
:1019F0000120F8BD20688068C043C007E4D1002002
:101A0000F8BD00000402002040420F00FEB505F0C2
:101A1000DBFD364C2078002805D0354905D100BFC4
:101A20004FF03C0603E03349F8E74FF03F0602D1A0
:101A30004FF03C0501E04FF04005680700D030460C
:101A4000EA0806FB02022C4806F0A4FC2A48029091
:101A5000C6F18000C5F140018DF8046000EBD07044
:101A600001EBD1718DF805504008C1F34701002307
:101A700001AA05F09DFC20780025204B009528B395
:101A800000211FA2084605F0B7FD1C4B1DA23821FE
:101A90000220009505F0B0FD05F00EFF012004F0D6
:101AA000D5FB18B12078E0B100202070032004F0AD
:101AB000CDFB18B12078B0B100202070022004F0D6
:101AC000C5FB002801D005F06BFBFEBD00210EA276
:101AD000084605F091FD3821084B0DA278200095AD
:101AE000D8E70120E1E70120E7E70000040000203B
:101AF00000E4FF0000E0FF009403002060AA00085B
:101B0000515100003C00000077656368617400007B
:101B10003E000000F8B5244C0125607B30B9192047
:101B200004F0D0FC222004F071FC657302F0AEFBDF
:101B3000A169401AC82808D302F0A8FBA061207B45
:101B400080F00100207305F095FE05F03DFD207B3F
:101B5000002608B1009500E00096102313A214217E
:101B60001E2005F0CDFE102312A230210A2000967F
:101B700005F0C6FE05F0A0FE012004F067FB40B9A9
:101B8000022004F063FB20B9032004F05FFB00286F
:101B900009D004F09FFC6673002005F06BFEBDE8E1
:101BA000F84005F0FDBAF8BD48000020CAB1BCE419
:101BB000B5BD0000B0B4C8CED2E2BCFC000000004D
:101BC00070B5504C504E86B0E07A002550B9307B4D
:101BD000E071707B2072B07B00B101206072A57251
:101BE0000120E07205F0F0FC0021102347A2084616
:101BF000009505F085FE237AE27947A101A8FEF75A
:101C00002FFB484B01AA18212C20009505F0F4FC6D
:101C1000607A08B144A200E045A2474B302132204F
:101C2000009505F0E9FCA07A02280CD22C2100EBEB
:101C3000400001EBC000C0B200F11001CAB22A237B
:101C40001946009504E03C234A22194632200095AB
:101C500005F0B8FB05F030FE012004F0F7FAE0B122
:101C6000A07A20B101280BD0022812D015E0E0792B
:101C70001821401CB0FBF1F201FB1200E0710CE0F6
:101C8000207A3C21401CB0FBF1F201FB12002072D3
:101C900003E0607A80F001006072032004F0D6FA5D
:101CA000C0B1A07A20B1012809D002280ED011E0DD
:101CB000E07910B1401EE0710CE01720FBE7207ABC
:101CC00010B1401E207205E03B20FBE7607A80F0F7
:101CD00001006072022004F0B9FA002810D0A07A46
:101CE000401CC0B2A07202280AD9E0793073207A71
:101CF0007073607AB07306F07BF9E57205F050FA04
:101D000006B070BD48000020940B0020C9E8D6C37F
:101D1000C4D6D6D300000000253032643A253032D4
:101D200064000000D4B400085B4F4E5D000000006A
:101D30005B4F46465D000000DCAE0008F8B55E4C27
:101D40000126A07810B901F0E3FCA67002F09EFA1B
:101D50002169401A1E287DD302F098FA2061A078EC
:101D6000002501280AD0022874D1012004F06EFA5F
:101D7000F0B36078E8B3401E60703CE0012004F0EE
:101D800065FA38B9022004F061FA18B9032004F0AA
:101D90005DFA18B1A07908B9A6716581042004F034
:101DA00055FA022600B1A67006F08AFA42481430AD
:101DB000011D82780B789A420DD902788B789A426D
:101DC00009D2C2784B789A4205D94078C9788842BE
:101DD00001D2A670657005F0F7FB06F033F805F048
:101DE000DFFF05F0A9FF05F0E9FF06F05BF85DE015
:101DF00001E0FFE76670032004F028FA10B1607874
:101E000058B16570022004F021FA58B1607830B101
:101E1000A570BDE8F84005F0C3B96670F2E701F0BF
:101E200077FCA67005F0D0FB06F00CF805F0B8FFC3
:101E300005F082FF05F0C2FF06F034F82823642283
:101E40000C210E20009605F09AFA282364220C211A
:101E50000E2000E02EE0009505F036FB174B18A28F
:101E600010212620009505F0C7FB6078009530B959
:101E70000C232C222021122005F081FA0096134B0E
:101E800013A22221142005F0B7FB607800950128E9
:101E900006D10C231C2220214C2005F070FA00965C
:101EA0000A4B0DA222214E2005F0A6FBBDE8F8400A
:101EB00005F002BDF8BD000008000020DCAE0008FF
:101EC00047414D45204F56455200000060AA00088A
:101ED0005265737461727400457869740000000083
:101EE0002DE9F843012004F0B1F93D4C28B16078A8
:101EF00008B1401E00E002206070032004F0A6F943
:101F0000002530B16078022802D2401C607000E0E9
:101F10006570022004F09AF90126B8B1617829B100
:101F20003048012906D0022910D108E0BDE8F84365
:101F300005F036B9217849B12570012203E02178F6
:101F400021B926700022402102F09BF905F03CFBEC
:101F50006078009530B900210A230E22084605F06A
:101F60000EFA00960121204B20A2084605F044FB02
:101F700060784C274FF01C080128009506D11820E6
:101F80001C232C22142105F0FAF90096184B19A2F3
:101F90001821404605F030FB60780095022806D1F4
:101FA00048201C232022142105F0E9F90096104B4B
:101FB00011A21821384605F01FFB2078009520B1AA
:101FC000642236231946384603E036234022194658
:101FD000404605F0F7F9BDE8F84305F06DBC000098
:101FE00024000020000C0140DCAE00083C3C000056
:101FF00038C200084F4646004F4E0000F8B5012099
:1020000004F024F938B9022004F020F918B90320AB
:1020100004F01CF918B1BDE8F84005F0C1B804F0AF
:1020200071FA0446D4E9120106F0EEFE80F0004594
:10203000D4E9140106F0E8FE0646014607F09AFED0
:1020400004462946084607F095FE214607F000FDA4
:1020500006F0AEFE0146204881420CDD07F060FD2F
:1020600004460146284607F085FE054621463046CF
:1020700007F080FE06464FF08541284607F0E8FC51
:1020800007F02CFEC4B24FF08441304607F0E0FC6C
:1020900007F024FEC5B205F097FA00231C22202188
:1020A000402005F09DF800262023442219463C20BC
:1020B000009605F087F9402224231C211046009643
:1020C00005F080F9002305222946204605F000F995
:1020D000BDE8F84005F0F0BB0000A8412DE9FE4F37
:1020E000554D00244FF001092878012809D102F04C
:1020F000CDF86968401A40F6B831884201D92C7091
:102100000AE0287840B1022004F0A0F898B12C70C1
:1021100005F046F8BDE8FE8F012004F097F838B9C5
:10212000022004F093F818B9032004F08FF868B186
:1021300085F8009007E0012004F088F818B9032022
:1021400004F084F810B102F0A1F8686005F03CFAE0
:1021500001F018FA064601F027F9074601F016FAD1
:10216000364B32464FF01401009438B1042005F08C
:1021700043FA96F8200018B131A202E0102004E0E2
:1021800030A2314B20216820009405F035FA3A4600
:102190002EA101A8FEF764F82E4B01AA36210020DB
:1021A000009405F029FA182036210C220623009409
:1021B00005F08AF924204FF037084FF0040A3A233B
:1021C00041460246009405F0FDF8002F0FDD07EBB5
:1021D00087004000642190FBF1F010F0FF0200D175
:1021E0000122534641461920009405F0C8F8164BC9
:1021F00006F10A0200210A20009405F0FDF9124BB5
:1022000006F1160200216420009405F0F5F9287803
:102210000094012807D1102320223021602005F0EE
:10222000AEF8CDF8009010230BA23021602005F00D
:1022300067FB05F041FB6DE70401002038C2000890
:10224000504D0000414D0000DCAE000825642525FE
:102250000000000060AA0008B2CBB5A50000000095
:102260002DE9F04FA24C89B00126E07860B9A68034
:1022700002202070304604F0C9F80A2001F0FAFE6E
:10228000607804F01FF9E670A0789A4F4FF01E09AD
:10229000002518B3032003F0D9FF58B160781B283C
:1022A00002D8C01C607002E0484684F80190C0B2B9
:1022B00004F008F9012003F0C9FF48B16078032851
:1022C00002D3C01E607000E06570607804F0FAF818
:1022D000022003F0BBFF80B3A57047E0042003F0A9
:1022E000B5FF00B1A670012003F0B0FF28B120783F
:1022F00008B1401E00E003202070032003F0A6FF79
:1023000030B12078032802D2401C207000E02570F4
:10231000022003F09BFF80B1207830B101280DD05E
:10232000022816D0032821D116E0E57004F0D2F877
:1023300004F036FF09B0BDE8F08F17E004F078F83C
:10234000A088012801D9401E01E0388870B1A08022
:102350000CE004F0CDF809E004F02AF8398821B146
:10236000A088884201D2401CF1E7A68005F02CF934
:102370002078009530B900210A230E22084604F087
:10238000FEFF009601215C4B5CA2084605F034F983
:102390003B88A2885AA101A8FDF762FF5B4B01AA06
:1023A00000211420009505F027F9A28858A101A862
:1023B000FDF756FF584B01AA14212E20009505F079
:1023C0001BF95720089016200790069020781727B1
:1023D0004FF0370A4FF02A0B012814D000234F4A40
:1023E0002C21384604F0E4FF03F0DCFF0746207898
:1023F0004FF03A0802280FD0DFB10023474A504679
:1024000010322C211AE0DDE90632152059460095DC
:1024100004F0B5FF0123E2E7DDE906323520594635
:10242000009504F0ACFF0FB10123E7E7404601231C
:1024300001E040460023394A2D21083A04F0B8FF54
:10244000207803284BD00023344A2C2108320898E6
:1024500004F0AEFFA078E0B31421182358220846F8
:10246000009604F08CFF142118235822084600958A
:1024700005F02AF81821102329A20846009505F036
:102480003FFA1D4B28A21A213820009505F0B4F818
:102490000A2320221A213220009505F015F86078D1
:1024A000C0EB00104100B1FBF9F010F0FF0205D0C5
:1024B00006231C213420009504F061FF62781BA1E3
:1024C00001A8FDF7CDFE1A210B4B01AA562000955D
:1024D00000E001E005F090F805F0EEF92AE7DDE90B
:1024E000063255205946009504F049FF0123ABE719
:1024F0002A00002050010020DCAE00083C3C000017
:1025000025303364202F20253033640060AA000872
:10251000253033640000000038C2000844A50008DC
:10252000D2F4C1BF000000003A00000025640000A2
:102530002DE9F043464C474D8BB06088002788B9A1
:102540002E4602223146684605F024FF9DF8000021
:1025500040B1FF2806D060882036401C80B26080E1
:10256000C828EED905F030F80021B84610238022A3
:102570000846009704F003FF01260221364B37A2DC
:102580000846009605F038F8354B36A20221202087
:10259000009605F031F81027A94600264546208808
:1025A0006188304480B2884213D209EB4011202266
:1025B00001A805F0EFFE07EB0610C1B28DF824501C
:1025C000102301AA0020009505F09AF9761C032E2D
:1025D000E5DB608803281CD97F223F2310211046A9
:1025E000009504F0EFFE60889021B1FBF0F3042B1E
:1025F00000D204232288C3F13001C01E514380B2AF
:1026000091FBF0F01030C1B203227D20009504F060
:10261000B6FE05F051F9032003F018FE18B120882A
:1026200008B1401E2080012003F010FE30B1618807
:102630002088C91E884201DA401C2080022003F055
:1026400005FE002801D004F0ABFD0BB0BDE8F0831F
:102650002600002000D0FF0060AA00083C3C0000DB
:10266000DCAE000855736572204D616E75616C00BB
:102670002DE9FF41354C364EE07818B9707920814C
:102680000120E07004F0A0FF0025324B32A2294661
:102690002846009504F0B0FFB4F9082032A101A843
:1026A000FDF7DEFD01A8FDF759FFC0004021A1EBB9
:1026B0005000C0B22D4B01AA1421009504F09CFFDC
:1026C0000C23642228210E20009504F0FDFE2089B1
:1026D000FF2780B200EB40004001B0FBF7F010F0A4
:1026E000FF0205D008232A211020009504F047FEA0
:1026F00005F0E2F8012003F0A9FD50B120890F3068
:1027000000B22081FF2800DD2781B4F9080005F020
:102710003DF8032003F09AFD50B120890F3800B234
:102720002081002800DA2581B4F9080005F02EF890
:10273000022003F08BFD002806D0207A707105F08E
:1027400057FCE57004F02CFDBDE8FF81300000204F
:10275000940B0020DCAE0008536574204272696758
:1027600068746E657373000025640000D4B40008BB
:1027700070B54A4D86B00026687805F10A0438B96C
:10278000A21C611C204600F0DFFE2E700120687044
:1027900004F01AFF0021424B42A20846009604F0C2
:1027A0002BFFA07800906378227841A101A8FDF763
:1027B00057FD444B01AA18211020009604F01CFF7D
:1027C0002878202100EB400001EBC000C0B200F1EE
:1027D0001001CAB22A231946009604F0F3FD05F051
:1027E0006BF8012003F032FD00B3287820B10128F6
:1027F0000BD0022812D019E020786421401CB0FBD5
:10280000F1F201FB1200207010E060780C21B0FBA7
:10281000F1F201FB1200401C607007E0A0781F215C
:10282000B0FBF1F201FB1200401CA070032003F08A
:102830000DFDD0B1287820B1012809D002280FD091
:1028400013E0207810B1401E20700EE06320FBE7FB
:102850006078012802D0401E607006E00C20FBE783
:10286000A078012817D0401EA070022003F0EEFCD3
:1028700000280ED02878401CC0B22870022808D941
:10288000A2786178207800F09FFE05F0D5F904F079
:1028900087FC06B070BD1F20E6E700003000002076
:1028A000DCAE0008536574204461746500000000CC
:1028B0003230253032642D253032642D253032649B
:1028C00000000000D4B400082DE9F04F4B4889B057
:1028D00001AD1EC885E81E000FC805AC484D84E850
:1028E0000F0068794FF0030A4FF00108002688B9FD
:1028F00044488068A0F51C51103941D0A0F5EA4148
:1029000030393FD0A0F56A4160393ED085F804A047
:1029100085F8058004F058FE3B4B3CA200211420B2
:10292000009604F069FE0C238022194600200096D0
:1029300004F048FD00244FF0100B0DF1040900BF16
:1029400004EB44010BEB8100C7B228790096844266
:102950001ED10C2380223946002004F010FDCDF852
:102960000080BF1C59F82420F9B22B4B0A2004F038
:1029700043FEF9B2284B29A20220CDF800800DE0D9
:102980002E71C5E785F80480C2E702202871BFE7F1
:10299000BF1C59F82420F9B21F4B0A2004F02CFE6A
:1029A00005F00EF8641C042CCADB04F085FF01203E
:1029B00003F04CFC30B1287910B1401E287101E0C1
:1029C00085F804A0032003F041FC30B128790328E6
:1029D00002D2401C287100E02E71022003F036FC68
:1029E000002808D0297905A850F8210005F000F842
:1029F0006E7104F0D5FB09B0BDE8F08F04A60008A5
:102A000030000020940B0020DCAE0008536C65659C
:102A1000702054696D65000060AA00083E00000047
:102A20002DE9FE4F4A494B4D0127D1E90001CDE97F
:102A30000101E87950B903F065FCE87928B9464806
:102A4000007900B10120A871EF71EF7104F0BCFDB5
:102A50000026424B42A231461420009604F0CCFDE1
:102A60000C23802219460020009604F0ABFC0024C1
:102A70004FF0180B0DF1040A4FEA06080BEB041097
:102A8000C6B2A879CDF80080844217D10E238022E7
:102A90003146002004F073FC009706F102095AF851
:102AA000242009F0FF01324B0A2004F0A5FD09F0B3
:102AB000FF012F4B2FA20220009705E0B01CC1B2EE
:102AC0005AF824202A4B0A2004F096FD03F01AFC41
:102AD00000B1012054EA000102D0012C0ED180B1D6
:102AE000A879844201D1012000E00020B61C0090AA
:102AF000F1B21F4B20A26E2004F07EFD641C022C5C
:102B0000BCDB04F0D9FE012003F0A0FB28B1A879BA
:102B100010B1401EA87100E0AF71032003F096FBD6
:102B200018B1A87988B185F80680022003F08EFBE1
:102B3000002808D0A87900B1012003F0B5FC85F881
:102B4000078004F02DFBBDE8FE8FAF71EDE70000BC
:102B5000FCA5000830000020940B0020DCAE00082B
:102B6000536F756E642053657474696E670000005E
:102B700060AA00083E0000002A00000070B5484D21
:102B800086B00026687805F10A0438B9A21C611CD9
:102B9000204600F001FD2E700120687004F014FD45
:102BA0000021404B40A20846009604F025FDA07885
:102BB00000906378227840A101A8FDF751FB424BB9
:102BC00001AA18212020009604F016FD2878202163
:102BD00000EB400001EBC000C0B200F11001CAB22E
:102BE0002A231946009604F0EDFB04F065FE01204F
:102BF00003F02CFBF8B1297829B13C2001290BD036
:102C0000022911D017E020781821401CB0FBF1F206
:102C100001FB120020700EE06178491CB1FBF0F25C
:102C200000FB1210607006E0A178491CB1FBF0F2C5
:102C300000FB1210A070032003F008FBC0B128783D
:102C400020B1012809D002280ED011E0207810B15F
:102C5000401E20700CE01720FBE7607810B1401E8A
:102C6000607005E03B20FBE7A078B8B1401EA07083
:102C7000022003F0EBFA00280ED02878401CC0B2E6
:102C80002870022808D9A2786178207800F0B8FC72
:102C900004F0D2FF04F084FA06B070BD3B20E6E7F2
:102CA00030000020DCAE00085365742054696D6567
:102CB0002028323448290000253032643A25303249
:102CC000643A253032640000D4B400082DE9F04F96
:102CD000854D8BB0E8786E69012804D101F0D6FAF1
:102CE0002969401A06444EF66020B6FBF0F04FF01A
:102CF0003C0A5146B0FBF1F20AFB12024FF47A7023
:102D0000B6FBF0F3B6FBF0F100FB11610A20B1FB5A
:102D1000F0F0B3FBFAF40AFB1433009073A102A89D
:102D2000FDF79EFA04F050FC012768790024009416
:102D300030B900210A231022084604F020FB009736
:102D40006E4B6FA20121022004F056FCA146102315
:102D50006CA200212820009404F0D2FD6B4B02AA43
:102D600010212220009404F047FCCB460024DFF819
:102D7000A081A9462FE000BF58F824204EF660201D
:102D8000B2FBF0F05146B0FBF1F30AFB13034FF432
:102D90007A70B2FBF0F5B5FBFAFC0AFB1C51B2FBF2
:102DA000F0F500FB15220A20B2FBF0F0CDE900108F
:102DB000621C58A106A8FDF753FA04EB84002221F7
:102DC00001EB4000C1B2584B06AA0A20CDF800B072
:102DD00004F012FC641C99F804008442CCDB342318
:102DE0005D46802219460020CDF800B004F0EAFAD2
:102DF00099F80310484641B14CA44DA18246407950
:102E000089460128009503D009E04BA44CA1F5E7C1
:102E10000A2322223621002004F0B1FA0097424B07
:102E200022463721022004F0E7FB9AF805005446B9
:102E30000228009506D10A231E223621622004F0C2
:102E40009EFA0097384B4A463721642004F0D4FBA1
:102E500004F032FD012003F0F9F928B1607908B1DE
:102E6000401E00E002206071032003F0EFF930B152
:102E70006079022802D2401C607100E06571022076
:102E800003F0E4F900280AD0607958B101280DD088
:102E9000022804D1E078012822D0656125710BB0A9
:102EA000BDE8F08FE57004F07BF9F8E7E07838B121
:102EB000207903280BD248F82060401C2071EEE7EF
:102EC00001F0E4F96169401A2061E770E7E7D8F89A
:102ED0000410C8F80010D8F80810C8E90116DEE799
:102EE0006661E570DBE700004800002025303264B1
:102EF0003A253032642E253032640000DCAE000802
:102F00003C3C0000BCC6CAB1C6F70000D4B40008FF
:102F10009405002023256420253032643A25303280
:102F2000642E25303264000060AA00084C617000F5
:102F300053746F70000000005374617274000000DD
:102F400052657365740000002DE9F043C1B001F0D3
:102F50009DF9504C6169401AB0F5FA7F05D900F02F
:102F600081FD206101F092F960614BA101A8FDF79C
:102F700077F94DA109A8FDF773F94FA111A8FDF745
:102F80006FF951A119A8FDF76BF953A121A8FDF71D
:102F900067F955A129A8FDF763F957A131A8FDF7F5
:102FA0005FF9206906F028FD02460B4656A139A8B4
:102FB000FDF756F904F008FB00270C230E223946D2
:102FC0003846009704F0DBF90120534B53A202214D
:102FD000009004F011FB524B52A2012114200097E3
:102FE00004F00AFB0E23802219460020009704F00B
:102FF000E9F9102600250DF10409B846A078284407
:10300000C0B208280DD206EB051109EB4012C9B277
:1030100010230020CDF8008004F072FC6D1C032DFD
:10302000ECDBA0780521C0EB0010400090FBF1F034
:103030003044C7B27F2212253F2331461046CDF8D7
:10304000008004F0BFF92B46032239467D20CDF8DD
:10305000008004F094F904F02FFC032003F0F6F84C
:1030600018B1A07808B1401EA070012003F0EEF85E
:1030700020B1A078052801D2401CA070022003F0E6
:10308000E5F8002803D084F8028004F089F841B004
:10309000BDE8F08330000020C9E8B1B8A3BA5354AA
:1030A0004D3332CAD6B1ED00BACBD0C4A3BA463143
:1030B0003033433854360000B4E6B4A2A3BA3230F9
:1030C0004B2B36344B000000C9C1B4E6A3BA3136ED
:1030D0004D42206578740000D6F7C6B5A3BA3732E2
:1030E000204D487A00000000B5E7B3D8A3BA3235C6
:1030F000306D416800000000B0E6B1BEA3BA56339F
:103100002E3020686A680000CEC2B6C8A3BA252E49
:10311000316620430000000060AA00083C3C00002B
:10312000DCAE000853797374656D20496E666F00DC
:1031300070B55C4C0025A07878B1607868B1012842
:1031400013D0022849D0032844D100F0CDFB012040
:1031500003F07CF800287DD194E001F097F8FDF7AA
:10316000BBF9012060702070A07000F025FB0320E7
:1031700003F06CF8022628B1207810B1401E2070B0
:1031800000E02670012003F061F830B120780228B9
:1031900002D2401C207000E02570022003F056F897
:1031A000002817D0207820B1012805D0022806D1A8
:1031B00011E04FF4487001E04FF4FA702061B4213F
:1031C0003948FDF72FFAA56004F084FE01F05EF89F
:1031D000E060667070BD9620F0E701F057F8E16896
:1031E000401A2169884211D301F050F8E06020793B
:1031F000A279401C41B2E07840B200F001F998B1E8
:1032000003F042F800F060F904F064FE012003F0DE
:103210001DF880B12079A27941B2E078401E40B219
:1032200000F0EEF820B106E02079401C2071EDE7B7
:10323000E078401EE070032003F008F868B12079C0
:10324000A27941B2E078401C40B200F0D9F820B930
:10325000E07800E01FE0401CE070022002F0F6FF82
:1032600060B1A079401C00F0030520792A4641B2E4
:10327000E07840B200F0C4F800B9A571BDE8704034
:1032800000F032BB022002F0E1FF20B9032002F07F
:10329000DDFF00289ED06570A570BDE8704003F08A
:1032A0007FBF000064000020A005002030B587B07B
:1032B00000F06CF9054600F0BBF904F085F9002434
:1032C00020236C2214210A20009404F0FDF8012030
:1032D00000901E236A2215210B2004F050F8EDB156
:1032E0000FA101A8FCF7BCFF01A8FDF737F9A0EB7F
:1032F0008000802101EB4000C0F347000B4B01AA86
:103300002021009404F078F904F0D6FA4FF44870C4
:1033100000F0B0FE03F044FF07B030BD04A1E0E7C9
:10332000313248202D3E203234480000DCAE000807
:10333000323448202D3E20313248000010B50B4C6D
:10334000607904F023FA207900B1012003F0ACF891
:10335000A06804F04DFBA07B08B1012200E0002230
:10336000617B207BBDE8104004F076BE940B00200A
:1033700070B5002425460B4800F092FD64210948F1
:1033800000F0F0FC074800F02FFC0444054800F072
:10339000E7FD6D1C642DEEDB6420B4FBF0F080B221
:1033A00070BD00000802002010B5FFF7E1FFB0F586
:1033B000FA6F01D2002010BD40F6C411884201D33B
:1033C000642010BD6421A0F5FA6048434FF4FA71FF
:1033D00090FBF1F010BD000000224FF48051014835
:1033E00000F04FBF000C0140FEE70246002010B580
:1033F00010230146545C491C20449942FAD310BD65
:103400002DE9FE47DFF85880DFF8589092460D46C8
:103410000646002402AF009701AB2246514698F8B9
:10342000050000F003FB9DF80400304441B29DF814
:1034300008000A29284440B209D2122807DA0028D5
:1034400008DB00EB800209EB4200405C10B1012078
:10345000BDE8FE87641CE4B2042CDCD30020F7E74F
:1034600064000020A00500202DE9F0410027144C45
:1034700003F048F8D0E90E5222F00046D0E90C21C2
:10348000D0E90AC021F0004320F00041604605F079
:10349000EDFC2A46334605F0E9FC0022094B06F014
:1034A00099F809D26078401CC0B26070022804D339
:1034B00067700120BDE8F08167700020FAE7000026
:1034C0007800002000407F40F0B51D4B1D4F1120BB
:1034D0009D681C6900EB8002002107EB4202565CEC
:1034E00036B3491CC9B20A29F9D3024610E000BF1D
:1034F00002EB820607EB460606EB010C1CF80ACC31
:1035000006F801C0491CC9B20A29F5D3521E52B2AD
:10351000002A4FF00001EBDC00227A54491CC9B2AA
:103520000A29FAD36435C82C00D9143C401C40B297
:10353000401E40B20028CDDA9D601C61F0BD000045
:1035400064000020A0050020F8B514460D4606468C
:1035500004F0DCFA0A49084400906846FDF7ACF82C
:103560004169642201F26C7191FBF2F302FB1311C9
:103570003170017C491C2970007B2070F8BD00006F
:1035800080436D3800487047540600200148007899
:103590007047000084000020F8B514460D4606462A
:1035A00004F0B4FA0649084400906846FDF784F830
:1035B000017A31700179297000782070F8BD00001F
:1035C00080436D3800F03EB8F8B516460C46054607
:1035D00004F09CFA0949084400906846FDF76CF82D
:1035E000641E6435C660C0E90445FDF78AF80349E6
:1035F0004942084404F0ACFAF8BD000080436D383D
:10360000F8B514460D46064604F080FA074908440A
:1036100000906846FDF750F880E87000FDF771F8FB
:1036200002494942084404F093FAF8BD80436D38DA
:103630000348017811B10021017070470121FBE7B7
:10364000840000202DE9FC4104F060FA244908447C
:10365000019001A8FDF730F8818A077E01F26C71B4
:103660008AB2017C047A491CCBB2017B06790578C9
:1036700000911CA11F48FCF7F3FD072F06D21E483E
:1036800050F827101B480C30FCF744FF1A48194F1C
:1036900008380A3F007818B10C2C0ED301200DE039
:1036A00014483346224615A10A380095FCF7D8FD88
:1036B000002087F82000BDE8FC81002087F820006A
:1036C00022000BD00C2A01D90C3AD2B20948334659
:1036D0000AA10A380095FCF7C3FDECE70C22F5E7D8
:1036E00080436D38253034642D253032642D2530EB
:1036F000326400005E0600208C0000202530326419
:103700003A253032643A25303264000070470000B8
:10371000084910B50020C8600881087148714881C7
:1037200088710870C870487000F0B0FDBDE81040A6
:10373000FCF7D2BE080000202DE9FF5F1F7893F848
:103740000180F81D5B684FEAD00A203A0AFB08F0B6
:1037500002FB003900242AE000265146304604FBD3
:1037600001F208E009EB0003C500D35CAB40334332
:10377000401C9EB2C0B28842F4D30199A8EB040069
:1037800008440025A0F1010B0DE00120A8403042C3
:1037900007D000980BF0FF012844C0B2002204F0CB
:1037A00073F86D1CEDB2BD42EFD3641CE4B2444526
:1037B000D2D3BDE8FF9F00002DE9FF4703F004FFCF
:1037C00000261C4B1CA231461920009603F014FF62
:1037D0000C23802219460020009603F0F3FD1A4ABC
:1037E00001AFDFF8689007CA87E8070000244FF0B0
:1037F000100800BF08EB0410C5B299F8000000964D
:10380000844207D1102380222946002003F0B7FD0F
:1038100001200090AD1C57F82420E9B2054B0A2086
:1038200003F0EAFE641CE4B2032CE3D304F044F892
:10383000BDE8FF87DCAE000853656C656374204CFF
:103840006576656C000000005CA60008640000203E
:1038500038B50A2831D200292FDB12292DDA01EBE5
:103860004101142303EB4101CDB200EB40000221E2
:1038700001EB4000C4B2A2B10020012A16D0022AF6
:103880001BD1062300901A462146284603F01CFE51
:10389000A41CAD1CE1B2E8B2BDE83840002203F040
:1038A000F3BF012006231A46009002E005231A46C2
:1038B00000902146284603F062FD38BD2DE9F04115
:1038C0001E4614460D46074608E03346294638464C
:1038D000FFF732FF7078281A05B2641C2278002A9C
:1038E000F3D1BDE8F08100002DE9F04786B003F088
:1038F0006BFE4FF0000912223F2349461046CDF8D7
:10390000009003F05FFD374B37A23A210220FFF70A
:10391000D5FFDFF8DC8037A101A8D8F80820FCF734
:103920009FFC304B01AA1A210220FFF7C7FFDFF8E6
:10393000C8A0002505EB850100240AEB41076EB203
:10394000385D20B10122314660B2FFF781FF641C6F
:10395000E4B20A2CF4D36D1CEDB2122DEAD398F820
:1039600001004546022819D1002405AE009604AB9B
:103970002246A979687900F059F828799DF8141041
:103980009DF81020084441B2E878104440B2022269
:10399000FFF75EFF641CE4B2042CE7D368780328C9
:1039A0001BD10120282200902C230A21104603F06D
:1039B000E6FC28222C230A211046CDF8009003F0C3
:1039C00083FD084B0DA228213620FFF777FF054B1A
:1039D0000CA228214020FFF771FF03F06DFF06B015
:1039E000BDE8F08760AA000853636F7265000000AD
:1039F00064000020256C6400A005002047414D456F
:103A0000000000004F5645520000000072B6FEE76D
:103A100010B5054C2078002805D003F0D4FB03F046
:103A2000DFFF0020207010BD7800002070B50C4C26
:103A3000049D04EBC00000EB4200002290F900401E
:103A400090F9010006E02646C0F1030044B2521C82
:103A50003046D2B28A42F6D31C70287070BD000086
:103A600024A600083EB510200090012001900720F8
:103A7000029000256946174800F038F808B1002088
:103A80003EBD144800F00CFA6421124800F06AF9B7
:103A9000104800F0A9F804460E4800F061FA6946A3
:103AA0000C48009500F022F8204606F04FF90A492C
:103AB00006F060F9094906F033F80146084806F0B7
:103AC000E7FA084906F02CF803B00749BDE8304092
:103AD00005F0BEBF080200203333534000F07F459D
:103AE0003D0AB73F04E78C3B0000C841F8B500240D
:103AF000009490F824202546012A12D0012280F853
:103B000024204A681F23072A0DD20668776B521EAD
:103B100002EB820293409F430B6893401F437763FD
:103B200019E00220F8BD06680D2A0AD2376BD21FB1
:103B300002EB820293409F430B6893401F4337631D
:103B400009E0F76A0D3A02EB820293409F430B684B
:103B500093401F43F7620A68072306680A2A0AD3BC
:103B6000F7680A3A02EB420293409F438B68934006
:103B70001F43F76008E0376902EB420293409F431E
:103B80008B6893401F4337610A68102A01D0112ABD
:103B900020D1124B02689A4217D193681B0219D4A4
:103BA000936843F4000393600968102912D10C490B
:103BB0000C4A0968B1FBF2F101EB8101490000E018
:103BC000491E00910029FBD104E0816A41F02001E7
:103BD0008162012480F824502046F8BD0024014071
:103BE0000402002040420F000068C06C70470000D3
:103BF0002DE9F0414FF0000704003D467ED0A06A59
:103C0000002628B9E66284F82460204600F07EF899
:103C10002046FDF791FEA16AC90600D420B1A06A32
:103C200040F01000A06269E0A16A21F4885141F0DF
:103C30000201A1626268E169237B0A4347EA43010A
:103C40000A43A1684FF48077B94209D0012907D00F
:103C50005FF0000194F814C0BCF1010F02D00AE03B
:103C60003946F7E7F3B1A36A43F02003A362E36A9E
:103C700043F00103E3622368D3F804C02CF4694CD9
:103C80004CEA010CC3F804C021688B68DFF870C0EF
:103C900003EA0C0313438B60A168B9420BD00129DE
:103CA00009D00CE0DFF85CC0A3690CEB43330B4395
:103CB00043F40061DFE7218A0D05A5F58015216831
:103CC000CB6A23F470032B43CB62216889680E4BC7
:103CD0001940914208D1E662A16A21F0020141F047
:103CE0000101A162BDE8F081A06A20F0020040F06D
:103CF0001000A062E06A40F00100E0620120F1E7FC
:103D0000FDF7E1FF00E0FFFFFE0E1FFF00B585B0ED
:103D10000021009101910291039100680E498842AF
:103D200018D10E48816941F400718161816901F403
:103D300000710491816941F00401816180696946E3
:103D400000F004000490012000900320019004483A
:103D500000F0A2F905B000BD0024014000100240AF
:103D6000000801402DE9F84300270D46044600975E
:103D700000F08CFA804620688168C90508D5A06AE1
:103D800040F02000A06284F824700120BDE8F88390
:103D90004168C90503D4C06A10F4700F2AD002200C
:103DA00000F08CFE3B490968B1FBF0F6206803691E
:103DB00039490B424FEA61014FEAA1121FD1C36892
:103DC0004FEA611C13EA0C0F19D103690B4225D18C
:103DD000C068104222D1142023E0681C0AD02DB103
:103DE00000F054FAA0EB0800A84203D9206800684C
:103DF000800725D5206800688007EED52DE003698F
:103E00000B4202D1C168114206D0026923490A421D
:103E100006D1C068084203D1542002E0292000E006
:103E2000FC204643009816E0681C11D02DB100F02C
:103E30002DFAA0EB0800A8420AD90098B04207D298
:103E4000A06A40F00400A06284F8247003209DE77B
:103E50000098401C0090B042E6D321686FF0120039
:103E60000860A06A40F40070A06220688068C0F317
:103E7000424007280CD1207B50B9A06A20F4807002
:103E8000A062A06AC00403D4A06A40F00100A0624E
:103E900000207BE704020020244992244992240058
:103EA00070B5044690F8240001280DD0012084F854
:103EB00024002046FDF76CFD02004FF0000005D005
:103EC00084F82400104670BD022070BDA16A40F243
:103ED0000123994341F48071A1621F4D23681F495A
:103EE000AB4218D10E6816F4702F14D0A66A46F4AF
:103EF0008016A6620E68760505D5A66A26F40056D9
:103F000046F48056A662A66AF6040AD5E66A26F04A
:103F10000606E66206E0A66A26F48016A6625E68D9
:103F2000E9E7E06284F824006FF00200186020687E
:103F30008368C3F34243072B05D1A84208D109681F
:103F400011F4702F04D0816841F480118160B9E7C9
:103F5000816841F4A001F9E70028014004240140F0
:103F600010B5044690F82400012807D0012084F8F9
:103F700024002046FDF7E0FC10B107E0022010BD50
:103F8000A16A21F4885141F00101A162002184F865
:103F9000241010BD10B590F821100022022905D080
:103FA0000421816380F82020012010BD01680B6886
:103FB00023F00E030B6001680B6823F001030B6014
:103FC00090F84030C46B012101FA03F3636080F87C
:103FD000211080F82020104610BD000010B590F888
:103FE00021100024022903D00421816301243DE033
:103FF00001680A6822F00E020A6001680A6822F06D
:1040000001020A601A4A0168914201D1012121E0AE
:10401000174A1432914201D110211BE0144A283270
:10402000914201D1891515E0114A3C32914201D1EA
:1040300089140FE00E4A5032914202D14FF4803180
:1040400008E00B4A6432914202D14FF4801101E042
:104050004FF08071064A083A5160012180F8211022
:10406000002180F82010416B01B18847204610BD27
:104070000800024070B5044600F008F90546601CCF
:1040800002D004480078044400F000F9401BA0422C
:10409000FAD370BDF80100202DE9F84FDFF8B89190
:1040A0000024A9F1040B23460F2709F1040AABF100
:1040B000040EC9E00125A5402A40AA427DD1674EE1
:1040C000D1F804C0ACEB0608B44532D014DCBCF126
:1040D000030F3AD009DCBCF1000F2AD0BCF1010F6C
:1040E0001CD0BCF1020F31D11DE0BCF1110F17D073
:1040F000BCF1120F2AD119E0B8F5881F19D006DCDF
:10410000B8F5803F15D0B8F5801F1FD111E0B8F584
:10411000001F0ED0B8F5041F18D10AE0CB6815E0D7
:10412000CB681B1D12E0CB6808330FE0CB680C3363
:104130000CE08B682BB1012B4FF0080303D04561D5
:1041400004E0042302E0056100E00023FF2A01D817
:10415000064601E000F104064FEA840501D9A5F105
:104160002005D6F8008007FA05FC28EA0C0803FAB7
:1041700005F548EA0508C6F800804D68ED0062D5EF
:10418000374DAE6946F00106AE61AD6924F0030615
:1041900005F001050095334D06EB050CDCF80850E1
:1041A000A607360F07FA06F825EA0805DFF8B880F3
:1041B000404503D14FF0000817E044E0DFF8AC8041
:1041C000404502D14FF001080FE0DFF8A4804045E0
:1041D00002D14FF0020808E0DFF89880404502D194
:1041E0004FF0030801E04FF0040808FA06F848EA27
:1041F0000508CCF808804D68D9F80060ED024D46FE
:1042000001D5164300E096432E604D68DAF8006051
:10421000AD02554601D5164300E096432E604D6829
:10422000DBF80060AD035D4601D5164300E0964320
:104230002E604D68DEF80060ED03754601D516432B
:1042400000E096432E60641C0D682A46E5407FF42A
:1042500031AFBDE8F88F00000804014000001110E4
:10426000001002400000014000080140000C014025
:1042700000100140001401408068084000D0012077
:1042800070470AB1016170470904FBE70148806883
:1042900070470000F801002070B5040025D094F8A4
:1042A0003D00002520B984F83C50204600F014FB66
:1042B000242084F83D002068016821F0010101609C
:1042C0002068016841F4004101602068016821F420
:1042D0000041016000F050FD4D4A6168914201D8F3
:1042E0004C4900E04C49884201D2012070BD4B4945
:1042F0002368B0FBF1F15E6826F03F060E435E6076
:104300006368934206D94FF4967359434FF47A7316
:10431000B1FBF3F12368491C1E6A26F03F063143C6
:1043200019626168914210D84900401EB0FBF1F259
:10433000521CC2F30B02042A01D2042022E0B0FB7B
:10434000F1F0401CC0F30B001CE0A268F2B301EBDB
:10435000C10303EB0116431EB3FBF6F35B1C43F4EE
:1043600080431B0549D092B301EBC10202EB01115E
:10437000401EB0FBF1F0401CC0F30B0040F4804045
:1043800040F400402168CA694CF6FF739A43104319
:10439000C861D4E9071001432068026822F0C00216
:1043A00011430160D4E9030101432068826848F2A7
:1043B000FF339A4311438160D4E905010843216822
:1043C000CA6822F0FF021043C86001E00EE016E068
:1043D0002068016841F0010101602564202084F813
:1043E0003D00256384F83E50002070BD01EB41067E
:1043F000431EB3FBF6F35B1CB3E70120C2E701EBFE
:104400004101401EB0FBF1F0401CC0F30B00B7E7C8
:10441000A086010080841E0000093D0040420F007C
:104420002DE9F84F1F4690468A460446DDF828904D
:10443000FFF72CFF054694F83D0020287FD1192373
:10444000012240492046009501F00AFD002876D15E
:1044500094F83C00012872D0012084F83C002068C8
:104460000168C90703D1016841F0010101602068BA
:10447000016821F400610160212084F83D001020D2
:1044800084F83E0000262664C4F824806785608D89
:1044900020852D48E0622B464A465146204601F0D1
:1044A00093FB90B9206841698069009036E02A4604
:1044B0004946204601F0B2FD50B1206C042804D1D9
:1044C0002068016841F4007101600120BDE8F88FA7
:1044D000606A216800780861606A401C6062618DD2
:1044E000491E6185218D491E89B221852268536943
:1044F000DB435B070BD451B100781061606A401C4C
:104500006062608D401E6085208D401E20852A4699
:104510004946204601F078FC0028CED1208D0028A5
:10452000C5D154F83D0B016841F4007101602020B1
:1045300004F81E09E67766770020C7E7FFE7022048
:10454000C4E70000020010000000FFFF2DE9FF4F4C
:1045500083B00025DDE910799A4693460446DDF8DC
:1045600048800095FFF792FE064694F83D0020280B
:104570007CD11923012288492046009601F070FC65
:104580000028F5D194F83C0001286FD0012084F870
:104590003C0020680168C90703D1016841F00101AE
:1045A00001602068016821F400610160222084F824
:1045B0003D00402084F83E0025646762A4F82A90FC
:1045C000608D20857548E062CDE9008653465A46E5
:1045D0002046049901F046FB00287CD1208DDFF8AD
:1045E000C091202768B1012814D0022820680168F2
:1045F0001ED041F4806101602068416980690090AB
:10460000BCE02068416981690091016841F4007152
:104610000160B3E02068016821F48061016072B636
:104620002068416981690091016841F400710AE0E4
:1046300041F40061016072B62068416981690091AE
:10464000016821F48061016062B697E0032865D8B3
:1046500001280CD0022843464FF00002494620466C
:1046600000960BD001F0FCFBA8BB0CE091E03246B9
:104670004146204601F09AFC68BB72E001F0F0FB75
:1046800048BB72B633E02068016821F480610160A4
:1046900072B620680069616A0870606A401C6062D6
:1046A000208D401E2085608D401E60853D4846F26D
:1046B000A8110068B0FBF1F0C0EBC00000EB800077
:1046C0000090401E009007D020684069C04340071A
:1046D0000DD50098F5E727E044F8305F6773A573C0
:1046E000206940F02000206162B625731CE020683C
:1046F000016841F40071016020680069616A087016
:10470000606A401C6062218D491E2185618D491EB1
:10471000618562B621680969017026E0324641462A
:10472000204601F043FC18B1012007B0BDE8F08F2E
:1047300020680069616A0870606A401C6062208DB0
:10474000401E81B22185608D401E608520684269CF
:10475000D243520712D4032903D1016821F48061A6
:10476000016020680069616A0870606A401C6062CC
:10477000208D401E2085608D401E6085208D002884
:104780007FF464AF84F83D7084F83E5084F83C5068
:10479000CBE70220C9E70000020010000000FFFF85
:1047A00004000100040200202DE9FF4F83B09A4667
:1047B000DDE9119793460446DDF84080FFF766FD7A
:1047C000054694F83D0020287FD119230122404955
:1047D0002046009501F044FB002876D194F83C0077
:1047E000012872D0012084F83C0020680168C907C4
:1047F00003D1016841F0010101602068016821F4E2
:1048000000610160212084F83D00402084F83E00D2
:1048100000262664C4F82480A4F82A90608D2085A0
:104820002C48E062CDE9007553465A46204604996B
:1048300001F096FA70B930E02A463946204601F078
:10484000EDFB58B1206C042804D12068016841F4C4
:1048500000710160012007B0BDE8F08F606A216837
:1048600000780861606A401C6062218D491E89B22F
:104870002185628D521E628522685369DB435B0786
:104880000BD469B100781061606A401C6062208DB1
:10489000401E2085608D401E6085208D0028CBD174
:1048A0002A463946204601F0AFFA0028CAD154F80A
:1048B0003D0B016841F400710160202004F81E09DD
:1048C000E67766770020C6E7FFE70220C3E700002F
:1048D000020010000000FFFF30B585B000210091FC
:1048E000019102910391214D0368214C1221032271
:1048F0002048AB421DD1A36943F00803A361A3691B
:10490000039203F0080304931302CDE900316946D2
:10491000FFF7C2FB1848416841F0E06141F0020135
:104920004160E06940F40010E061E06900F40010CB
:1049300019E0124DAB4217D1A36943F00803A361FC
:10494000A369039203F0080304934FF44063CDE995
:1049500000316946FFF7A0FBE06940F48000E061A8
:10496000E06900F48000049005B030BD00540040C0
:1049700000100240000C01400000014000580040BF
:10498000024881680278114481607047F801002074
:10499000074810B5016841F010010160032000F0E4
:1049A00075F80F2000F006F800F024F8002010BD84
:1049B0000020024070B50D4D04464FF47A712878FE
:1049C000B1FBF0F00A490968B1FBF0F000F07CFEA1
:1049D00048B9102C07D200222146501E00F036F8AC
:1049E00000206C6070BD012070BD0000F801002047
:1049F000040200200C4808B5816941F00101816181
:104A0000816901F001010091C16941F08051C161EA
:104A1000C06900F0805000900448416821F0E061D6
:104A200041F00071416008BD0010024000000140EB
:104A3000002809DB00F01F0201219140400980009D
:104A400000F1E020C0F8001170470000F0B40E4BF8
:104A50001B680C46C3F30223C3F10705042D00D9DC
:104A60000425191D072901D2002300E0DB1E0126C1
:104A700006FA05F1491E214099409E40761E1640D7
:104A80003143F0BC03F061BD0CED00E0064900F0DD
:104A9000070208684FF6FF03184040EA0220034A65
:104AA00010430860704700000CED00E00000FA05BC
:104AB000014901200862704700000E4210B501460E
:104AC0000020234C012922D0022939D010291DD1E0
:104AD00061682268D20119D51E48C1F38342C90317
:104AE000805C0AD561681B4AC1F34041921E515C4B
:104AF000194AB2FBF1F1484301E0184948436168A3
:104B0000490203D440000321B0FBF1F010BD226A3A
:104B1000C2F30121012903D1920701D5C80310BDB9
:104B2000022905D1626A920702D549F6404010BDBC
:104B30000329FCD121688903F9D54FF2244010BD27
:104B400000F02AF96168C1F38131491C4900DBE7B3
:104B500000100240E4D0000800127A0000093D0075
:104B60002DE9F84305460078354CC00754D0E0697C
:104B70000026C00008D4E06940F08050E061E069A0
:104B8000012600F0805000902E480168C90512D41B
:104B90000168804641F480710160FFF777FB0746AA
:104BA00005E000BFFFF772FBC01B642823D8D8F8CC
:104BB0000000C005F6D5206A10F4407021D0A98805
:104BC00001F4407181421CD0206A1F49012220F467
:104BD00040700A6000220A602062C00711D0FFF70F
:104BE00055FB074641F2883808E000BFFFF74EFB4F
:104BF000C11B414502D90320BDE8F883206A800724
:104C0000F4D5206A696820F44070084320621EB120
:104C1000E06920F08050E0612878800705D5606861
:104C2000A96820F44040084360602878C00605D594
:104C30006068E96820F48000084360600020DBE7DA
:104C40000010024000700040400442422DE9F0474D
:104C50000F46050061D0434E306800F00700B842AF
:104C600009D2306820F0070038433060306800F027
:104C70000700B84251D128683B4C810712D5400744
:104C800003D5606840F4E06060602878000703D5D1
:104C9000606840F4605060606068A96820F0F000CF
:104CA000084360602878C00728D06868012810D0C1
:104CB0002168022810D0890700292EDA616821F0C6
:104CC000030101436160FFF7E1FA804641F2883950
:104CD0000DE021688903EFE78901EDE7FFF7D6FAD8
:104CE000A0EB0801494502D90320BDE8F0876068C0
:104CF000696800F00C00B0EB810FEFD1306800F074
:104D00000700B8420BD9306820F007003843306004
:104D1000306800F00700B84201D00120E5E72878AC
:104D2000400705D56068E96820F4E06008436060EA
:104D30002878000706D56068296920F4605040EAA9
:104D4000C100606000F038F86168084AC1F30311DF
:104D5000515CC8400649086006480068FFF72AFE13
:104D60000020C2E70020024000100240F4D00008FA
:104D700004020020FC01002004480549006849683D
:104D8000044AC1F30221515CC8407047040200206C
:104D90000010024004D10008044805490068496831
:104DA000044AC1F3C221515CC8407047040200208C
:104DB0000010024004D100080E4A51680E4801F06C
:104DC0000C03042B11D0082B0FD10C48C1F38343E3
:104DD000C903C05C0AD55168084AC1F34041921E1C
:104DE000515C054A5043B0FBF1F070470449484319
:104DF000704700000010024000127A00D2D0000874
:104E000000093D002DE9F84F040070D02078C04D16
:104E1000C00749D06868C0F38100012807D06868DE
:104E2000C0F38100022809D16868C00306D528684C
:104E3000800339D560680028E7D035E06068B0F5B8
:104E4000803F0BD010B1B0F5A02F11D0286820F40E
:104E500080302860286820F4802002E0286840F430
:104E600080302860606890B1FFF710FA06460AE0CB
:104E7000286840F480202860F0E700BFFFF706FABA
:104E8000801B642873D828688003F7D50CE0FFF7EF
:104E9000FDF9064605E000BFFFF7F8F9801B64281E
:104EA000F0D828688003F7D420789A4E80074FF016
:104EB00001094FF0000839D5686810F00C0F07D0D1
:104EC0006868C0F38100022809D16868C00306D46D
:104ED0002868800714D52069012808D110E02069CE
:104EE000B0B1C6F80090FFF7D1F9074605E00AE136
:104EF000FFF7CCF9C01B0228C4D828688007F7D573
:104F00002868616920F0F80040EAC10028600DE0DF
:104F1000C6F80080FFF7BAF9074604E0FFF7B6F9D4
:104F2000C01B022823D828688007F7D42078000700
:104F30002CD57948A169D9B1C0F80090FFF7A6F93E
:104F4000074604E0FFF7A2F9C01B02280FD8686AE1
:104F50008007F7D571484FF4FA510068B0FBF1F0C3
:104F6000009000BF0098411E0091FAD20EE080E050
:104F7000C0F80080FFF78AF9074604E0FFF786F9DA
:104F8000C01B022875D8686A8007F7D420784007CC
:104F900060D5E8690027C00008D4E86940F0805077
:104FA000E861E869012700F0805000905C480168E2
:104FB000C90513D40168834641F480710160FFF78D
:104FC00065F9824606E000BFFFF760F9A0EB0A0032
:104FD00064284ED8DBF80000C005F5D5E06801284C
:104FE0000AD008B1052813D0286A20F001002862F1
:104FF000286A20F0040002E0286A40F001002862DC
:10500000E06841F2883B98B1FFF740F982460BE037
:10501000286A40F004002862EEE700BFFFF736F987
:10502000A0EB0A0159455AD8286A8007F6D50CE04A
:10503000FFF72CF9824605E0FFF728F9A0EB0A01FB
:1050400059454CD8286A8007F6D41FB1E86920F08A
:105050008050E861E06988B36968C1F38101022981
:1050600044D00228C6F8608004D0FFF70FF9044648
:1050700038E034E0FFF70AF9074604E0FFF706F9E5
:10508000C01B02282BD828688001F7D4206AB0F50D
:10509000803F05D16868A16820F40030084368604B
:1050A000D4E908010843696821F474110843686071
:1050B000C6F86090FFF7EAF8044606E025E000BF76
:1050C000FFF7E4F8001B022809D828688001F7D50B
:1050D0001BE000BFFFF7DAF8001B022802D903200B
:1050E000BDE8F88F28688001F4D40EE00128F7D0DD
:1050F0006868226A00F48031914204D1616A00F448
:105100007010884201D00120EAE70020E8E70000A3
:10511000001002400000424280044242040200208B
:1051200000700040024850F8210080B27047000033
:10513000006C0040024800EB810091B201607047B2
:10514000006C004070B5040003D0607C002610B1F4
:1051500005E0012070BD2674204600F03DF80220D5
:105160006074204600F00AF9042550BB204602F086
:1051700096FC30BB2068416821F007014160A068BF
:1051800020B11448016821F0010101601148001F9D
:105190000168A26821F46071114301606068411CDC
:1051A00004D10120FFF78AFC58B1401E2268C0F3E9
:1051B00003419160216880B2C860204602F08AFCF9
:1051C00008B16574C5E7E67301206073A07360746D
:1051D000002070BD306C004008B500680849884266
:1051E0000DD1FFF765FC0748C16941F00061C1615D
:1051F000C069054900F0006000900120086008BD0A
:1052000000280040001002403C0442422DE9F041D9
:105210000D4604003BD0C5B3207C01283AD04FF0A6
:10522000010884F8108002206074E87872B302F0FC
:105230002DFCE073687802F029FC6073A87802F016
:1052400025FCA073C2B2617BE07B02F0A1FC20735D
:105250002870204602F06BFC4FF46161B0FBF1F165
:10526000002518292DD91822B1FBF2F1A1EB01116B
:1052700001EB4101C1EB011100EBC11631462046A3
:1052800002F0C5FC0427C8B90BE000E004E00120EF
:10529000BDE8F0810220FBE7E07368786073A878CE
:1052A000CFE7204602F03CFC411C0AD0B04208D2B5
:1052B00006490144204602F096FC10B1677425743B
:1052C000E5E784F8118025740020E1E780510100B2
:1052D0002DE9F0410D46040024D01DB3207C0128A7
:1052E00023D04FF0010884F81080022060742878E1
:1052F000EAB102F0CBFB4FF4616100FB01F6687884
:1053000002F0C4FBC0EB001006EB8006A87802F0A8
:10531000BDFB35182946204602F079FC00260427FB
:1053200010BB0FE00120BDE8F0810220FBE74FF445
:10533000616148436978C1EB011100EB8100A978F4
:105340004518E7E72068416821F0050141602046E3
:1053500002F0E6FB411C0AD0A84208D206490144EB
:10536000204602F040FC10B167742674DAE784F836
:10537000118026740020D6E78051010070B504002A
:105380000AD02068416821F008014160FEF77EFFE5
:1053900005464FF47A7608E0012070BDFEF776FFEF
:1053A000401BB04201D9032070BD2068406800074F
:1053B000F4D5002070BD70B5040009D0606A0025E6
:1053C00040B125616561A56294F8510040B10CE0DF
:1053D000012070BD6068B0F5827FF4D0E561F2E72E
:1053E00084F85050204600F03FF8022084F8510025
:1053F0002068016821F040010160A088218900F443
:10540000827001F404410843A18901F4006108435A
:10541000217C01F002010843217D01F001010843D4
:10542000218B01F400710843217F01F0380108430A
:1054300094F8201001F080010843218D01F40051FF
:10544000084321680860A069042101EA104021682E
:1054500048602068C16921F40061C161656501206F
:1054600084F85100002070BD30B585B00024009450
:1054700001940294039400681449884223D114488B
:10548000816941F480518161816901F48051049105
:10549000816941F00401816180690E4D00F00400D2
:1054A0000490A02000900220019003200390694600
:1054B0002846FEF7F1FD4020CDE900046946284664
:1054C0000294FEF7E9FD05B030BD00000030014058
:1054D00000100240000801402DE9FF4F81B01D4639
:1054E000934604464FF001090E9EFEF7CFFE074695
:1054F00094F851006168012806D0B1F5827F3CD153
:10550000A168C9BB042838D10298002871D0BBF12A
:10551000000FFBD0002DF9D094F8500001282CD0BA
:105520004FF0010A84F850A094F85100042802D0EA
:10553000052084F851004FF00008C4F85480C4F8E6
:1055400038B0E587A58702992163E586A586C4F86A
:105550004080C4F8448020680168490603D401688B
:1055600041F040010160E068B0F5006F606808D06C
:10557000F0B3012D49D081E0FFE7022005B0BDE87E
:10558000F08F08B1012D39D1206B21680088C860E7
:10559000206B801C2063E08E401EE0862EE0206899
:1055A000816889070FD5E18E69B1B9F1010F0AD180
:1055B000216B0988C160206B801C2063E08E401E37
:1055C000E0864FF0000920688168C9070CD0E18FA0
:1055D00051B1C068A16B0880A06B801CA063E08FF4
:1055E000401EE0874FF00109FEF750FEC01B01E0AE
:1055F0000BE067E0B04201D3701C50D1E08E002870
:10560000CDD1E08F0028CAD13EE0206B2168007820
:105610000873206B401C2063E08E401EE0862DE066
:105620002068816889070FD5E18E69B1B9F1010F52
:105630000AD1216B09780173206B401C2063E08E36
:10564000401EE0864FF0000920688168C9070CD031
:10565000E18F51B1C068A16B0870A06B401CA063C2
:10566000E08F401EE0874FF00109FEF70FFEC01BE0
:10567000B04202D3701C01D011E086B1E08E002848
:10568000CED1E08F0028CBD13A463146204602F0F9
:10569000DBFA50B12020606584F8508012E084F875
:1056A00051A084F85080032068E7A06818B92068EA
:1056B000C1688068009084F851A084F85080606DC3
:1056C0000028F1D0012059E710B5401EB0F1807FCD
:1056D00001D3012010BD4FF0E02460610F2160175D
:1056E00002F033FF0020A06107202061002010BDE0
:1056F00070477047F8B5016804460868CA684B6986
:1057000010F00F0F4FF0000559D003F0010602F41E
:105710009077374365D0C10705D0D10503D5616CBB
:1057200041F001016164410705D5D90703D0616CDF
:1057300041F002016164810705D5D90703D0616C8E
:1057400041F004016164010707D502F020013143F3
:1057500003D0616C41F008016164616C00293AD0AA
:10576000800604D5900602D5204602F0ACFC2068E5
:105770004069616CC0F38010090700D460B3204613
:1057800002F07AFC20684069400621D52068143078
:1057900050E8001F21F0400140E80012002AF5D136
:1057A000E06BA8B16D494163E06BFEF717FC002880
:1057B00011D0E06B416B01B0BDE8F04008478306B3
:1057C0000FD593060DD52046BDE8F84002F07BBC0E
:1057D0002046FFF78EFFF8BD2046FFF78AFF65647D
:1057E000F8BD266B2023012E7CD1C6067AD5D606BD
:1057F00078D508684868009048694FF0020640066E
:1058000040D5E16B086840680004000CE8D0A28D28
:105810008242E5D9E085886920282DD020680C30A7
:1058200050E8001F21F4807140E80012002AF5D1F1
:105830002068143050E8001F21F0010140E80012F8
:10584000002AF5D12068143050E8001F21F04001F3
:1058500040E80012002AF5D184F842302563206820
:105860000C3050E8001F21F0100140E80012002A1F
:10587000F5D1E06BFEF78EFB6663A08DE18D401ADB
:1058800081B22AE0A08DE18D401A81B2E08D00281E
:10589000A6D00029A4D022680C3252E8000F20F4D0
:1058A000907042E80007002FF5D12068143050E8CE
:1058B000002F22F0010240E80027002FF5D184F8E4
:1058C0004230256320680C3050E8002F22F010028F
:1058D00040E80023002BF5D166632046FFF708FF60
:1058E000F8BDFFE705062BD5150629D594F841002C
:1058F0002128F5D1A068B0F5805F01D12069B0B151
:10590000206A411C2162216800784860E08C401EBA
:105910000004000CE084E3D12068C16821F080011C
:10592000C1602068C16841F04001C160D8E7206AC9
:105930000088C0F308004860206A801C2062E5E708
:105940004006CDD55006CBD5CA68204622F040028D
:10595000CA6084F8413000F01EF9C1E76980000890
:1059600070B5040004D094F84100002510B106E0A1
:10597000012070BD84F84050204600F023F8242018
:1059800084F841002068C16821F40051C1602046BC
:1059900002F0FAFB2068016921F49041016120685E
:1059A000416921F02A0141612068C16841F4005138
:1059B000C1606564202084F8410084F8420065637A
:1059C000002070BD30B585B000240094019402948D
:1059D00003940068184988422BD11848C16941F4E2
:1059E0000031C161C16901F400310491816941F064
:1059F000040181618069124D00F0040004900420CC
:105A00000090022001900320039069462846FEF78B
:105A100043FB0820CDE90004694628460294FEF7BE
:105A20003BFB002201212620FFF710F82620FEF77D
:105A3000FFFF05B030BD00000044004000100240F0
:105A4000000801402DE9F84F044690F842009A46BC
:105A500016460D46202802D00220BDE8F88FB5B1C9
:105A6000AEB100206064222184F842102063FEF76A
:105A70000DFCA6858146E685A0684FF48058202756
:105A8000404501D1206920B12E46002529E00120A2
:105A9000E3E7002625E04B46002220212046CDF8F2
:105AA00000A002F0CDFB18B184F842700320D4E7C7
:105AB00026B1A06840451AD038B108E02068406897
:105AC000C0F3080025F8020B08E0206978B12068CF
:105AD000406800F07F0000BF06F8010BE08D401E1B
